8=FIX.4.2|9=0|35=D|49=830199|56=AZKJ|34=0|57=3620|52=20150406-12:17:27|11=0c968e69-c3ff-4f9f-bc66-9e5ebccd9807|41=e0568b5c-8bb1-41f0-97bf-5eed32828c24|1=909646300|55=SJM|48=464288430|22=1|54=1|38=75700|40=1|15=USD|59=0|60=20150406-12:17:27|8201=1|207=P|10=0|
8=FIX.4.2|9=0|35=D|49=AZKJ|56=JGEB|34=1|50=3620|57=9461|52=20150406-12:17:27|11=3a074d1d-fb06-4eb0-b2f8-0912c5735f65|109=830199|1=909646300|55=SJM|48=464288430|22=1|54=1|38=75700|40=1|15=USD|59=0|8011=0c968e69-c3ff-4f9f-bc66-9e5ebccd9807|60=20150406-12:17:27|8201=3|207=P|10=0|
8=FIX.4.2|9=0|35=D|49=AZKJ|56=JGEB|34=2|50=3620|57=9461|52=20150406-12:17:27|11=3a074d1d-fb06-4eb0-b2f8-0912c5735f65|41=335844d8-fc05-41d9-825b-6f3a5059a29b|109=830199|1=AZKJ909646300|55=SJM|48=464288430|22=1|54=1|38=75700|40=1|15=USD|59=0|60=20150406-12:17:27|8201=1|207=P|10=0|
8=FIX.4.2|9=0|35=8|49=AZKJ|56=JGEB|34=3|50=3620|57=9461|52=20150406-12:17:27|11=3a074d1d-fb06-4eb0-b2f8-0912c5735f65|37=ebf9c385-96c6-4e26-9e76-6dc79028a816|41=335844d8-fc05-41d9-825b-6f3a5059a29b|109=830199|76=830199|17=f2745db7-77c7-4953-ae77-a69dc81e805a|20=0|39=2|1=AZKJ909646300|55=SJM|48=464288430|22=1|54=1|38=75700|40=1|59=0|32=75700|31=48.141000|30=O|29=1|14=75700|6=235.00|75=20150406-12:17:27|60=20150406-12:17:27|150=2|151=0|8201=1|207=P|10=0|
8=FIX.4.2|9=0|35=D|49=377500|56=GPFI|34=0|57=8846|52=20150406-12:17:27|11=4345c1d4-1d6c-49ac-a002-6b13ad9ac443|41=8b45585e-d957-44d7-87ab-f357814e2cf9|1=289245203|55=AAPL|48=464288430|22=1|54=2|38=53800|40=1|15=USD|59=0|60=20150406-12:17:27|8201=1|207=P|10=0|
8=FIX.4.2|9=0|35=D|49=GPFI|56=EDWZ|34=1|50=8846|57=7489|52=20150406-12:17:27|11=af5da13a-7f42-4c10-aec0-de80eede913d|109=377500|1=289245203|55=AAPL|48=464288430|22=1|54=2|38=53800|40=1|15=USD|59=0|8011=4345c1d4-1d6c-49ac-a002-6b13ad9ac443|60=20150406-12:17:27|8201=3|207=P|10=0|
8=FIX.4.2|9=0|35=D|49=GPFI|56=EDWZ|34=2|50=8846|57=7489|52=20150406-12:17:27|11=af5da13a-7f42-4c10-aec0-de80eede913d|41=938fcb25-42c8-4324-a491-f25bc166f6fb|109=377500|1=GPFI289245203|55=AAPL|48=464288430|22=1|54=2|38=53800|40=1|15=USD|59=0|60=20150406-12:17:27|8201=1|207=P|10=0|
8=FIX.4.2|9=0|35=8|49=GPFI|56=EDWZ|34=3|50=8846|57=7489|52=20150406-12:17:27|11=af5da13a-7f42-4c10-aec0-de80eede913d|37=b922e157-bd78-4ae7-89f8-d5802acc8930|41=938fcb25-42c8-4324-a491-f25bc166f6fb|109=377500|76=377500|17=5a8419a4-ec85-49fa-9825-d7e6eb7dd9ff|20=0|39=2|1=GPFI289245203|55=AAPL|48=464288430|22=1|54=2|38=53800|40=1|59=0|32=53800|31=48.141000|30=O|29=1|14=53800|6=285.73|75=20150406-12:17:27|60=20150406-12:17:27|150=2|151=0|8201=1|207=P|10=0|
8=FIX.4.2|9=0|35=D|49=740693|56=ZENS|34=0|57=2394|52=20150406-12:17:27|11=6dbc90a3-3e33-4f78-a9a0-5a900e79d458|41=b7ee40be-14ff-4542-92c9-038963de6d77|1=733648192|55=COH|48=464288430|22=1|54=2|38=28000|40=1|15=USD|59=0|60=20150406-12:17:27|8201=1|207=P|10=0|
8=FIX.4.2|9=0|35=D|49=ZENS|56=SHTD|34=1|50=2394|57=3510|52=20150406-12:17:27|11=ab3ed75a-920d-4362-9ccc-86c2b2939dbd|109=740693|1=733648192|55=COH|48=464288430|22=1|54=2|38=28000|40=1|15=USD|59=0|8011=6dbc90a3-3e33-4f78-a9a0-5a900e79d458|60=20150406-12:17:27|8201=3|207=P|10=0|
8=FIX.4.2|9=0|35=D|49=ZENS|56=SHTD|34=2|50=2394|57=3510|52=20150406-12:17:27|11=ab3ed75a-920d-4362-9ccc-86c2b2939dbd|41=85516c47-9a62-4189-b97e-b2bd1d7012f5|109=740693|1=ZENS733648192|55=COH|48=464288430|22=1|54=2|38=28000|40=1|15=USD|59=0|60=20150406-12:17:27|8201=1|207=P|10=0|
8=FIX.4.2|9=0|35=8|49=ZENS|56=SHTD|34=3|50=2394|57=3510|52=20150406-12:17:27|11=ab3ed75a-920d-4362-9ccc-86c2b2939dbd|37=ac813fa2-e597-4348-a569-ed6fb35a38e1|41=85516c47-9a62-4189-b97e-b2bd1d7012f5|109=740693|76=740693|17=bca2e909-ec28-4f04-84d0-fa516df612cc|20=0|39=2|1=ZENS733648192|55=COH|48=464288430|22=1|54=2|38=28000|40=1|59=0|32=28000|31=48.141000|30=O|29=1|14=28000|6=217.79|75=20150406-12:17:27|60=20150406-12:17:27|150=2|151=0|8201=1|207=P|10=0|
8=FIX.4.2|9=0|35=D|49=528103|56=DCLL|34=0|57=9419|52=20150406-12:17:27|11=99ec41a2-2521-4f17-80c9-9bab9d58213d|41=67d7e19a-513b-4e83-b060-ba492e4dd4e0|1=091834485|55=T|48=464288430|22=1|54=2|38=71700|40=1|15=USD|59=0|60=20150406-12:17:27|8201=1|207=P|10=0|
8=FIX.4.2|9=0|35=D|49=DCLL|56=HUJR|34=1|50=9419|57=6469|52=20150406-12:17:27|11=0d04d562-fe9f-415c-81a8-239fe2c1cd14|109=528103|1=091834485|55=T|48=464288430|22=1|54=2|38=71700|40=1|15=USD|59=0|8011=99ec41a2-2521-4f17-80c9-9bab9d58213d|60=20150406-12:17:27|8201=3|207=P|10=0|
8=FIX.4.2|9=0|35=D|49=DCLL|56=HUJR|34=2|50=9419|57=6469|52=20150406-12:17:27|11=0d04d562-fe9f-415c-81a8-239fe2c1cd14|41=e0a527c0-f380-45e8-8a72-55dbce291850|109=528103|1=DCLL091834485|55=T|48=464288430|22=1|54=2|38=71700|40=1|15=USD|59=0|60=20150406-12:17:27|8201=1|207=P|10=0|
8=FIX.4.2|9=0|35=8|49=DCLL|56=HUJR|34=3|50=9419|57=6469|52=20150406-12:17:27|11=0d04d562-fe9f-415c-81a8-239fe2c1cd14|37=32bf4a12-0820-4e80-982c-a3947a8f14c0|41=e0a527c0-f380-45e8-8a72-55dbce291850|109=528103|76=528103|17=cda56dd8-3ff8-4965-9d27-3a2c98c98b87|20=0|39=2|1=DCLL091834485|55=T|48=464288430|22=1|54=2|38=71700|40=1|59=0|32=71700|31=48.141000|30=O|29=1|14=71700|6=84.64|75=20150406-12:17:27|60=20150406-12:17:27|150=2|151=0|8201=1|207=P|10=0|
8=FIX.4.2|9=0|35=D|49=830199|56=XMPL|34=0|57=2817|52=20150406-12:17:27|11=d8038040-902f-48ee-bb60-a7448df4b71f|41=b28a5cd8-8b6f-4994-bd49-c4353f1a8c5c|1=604222624|55=AAPL|48=464288430|22=1|54=1|38=40600|40=1|15=USD|59=0|60=20150406-12:17:27|8201=1|207=P|10=0|
8=FIX.4.2|9=0|35=D|49=XMPL|56=FYMJ|34=1|50=2817|57=718|52=20150406-12:17:27|11=2addc960-c0c9-441f-9c34-fb4cb7f1aacf|109=830199|1=604222624|55=AAPL|48=464288430|22=1|54=1|38=40600|40=1|15=USD|59=0|8011=d8038040-902f-48ee-bb60-a7448df4b71f|60=20150406-12:17:27|8201=3|207=P|10=0|
8=FIX.4.2|9=0|35=D|49=XMPL|56=FYMJ|34=2|50=2817|57=718|52=20150406-12:17:27|11=2addc960-c0c9-441f-9c34-fb4cb7f1aacf|41=6f420ec1-3bc2-44d7-9522-1d5967a2a64c|109=830199|1=XMPL604222624|55=AAPL|48=464288430|22=1|54=1|38=40600|40=1|15=USD|59=0|60=20150406-12:17:27|8201=1|207=P|10=0|
8=FIX.4.2|9=0|35=8|49=XMPL|56=FYMJ|34=3|50=2817|57=718|52=20150406-12:17:27|11=2addc960-c0c9-441f-9c34-fb4cb7f1aacf|37=3c96d583-1ff3-4096-8be9-ec7f661826b2|41=6f420ec1-3bc2-44d7-9522-1d5967a2a64c|109=830199|76=830199|17=0b373833-e5bb-4ad6-9583-f95c5d9e8dd9|20=0|39=2|1=XMPL604222624|55=AAPL|48=464288430|22=1|54=1|38=40600|40=1|59=0|32=40600|31=48.141000|30=O|29=1|14=40600|6=285.94|75=20150406-12:17:27|60=20150406-12:17:27|150=2|151=0|8201=1|207=P|10=0|
8=FIX.4.2|9=0|35=D|49=171866|56=KBWJ|34=0|57=6969|52=20150406-12:17:27|11=bb666f34-71b1-49a1-97c8-0867a2450d3c|41=bd77225f-427f-4965-b733-c65652ca0ee8|1=635304337|55=KORS|48=464288430|22=1|54=2|38=85700|40=1|15=USD|59=0|60=20150406-12:17:27|8201=1|207=P|10=0|
8=FIX.4.2|9=0|35=D|49=KBWJ|56=FYMJ|34=1|50=6969|57=5669|52=20150406-12:17:27|11=5f96b374-fd9d-43c8-af9c-f55dd4efca54|109=171866|1=635304337|55=KORS|48=464288430|22=1|54=2|38=85700|40=1|15=USD|59=0|8011=bb666f34-71b1-49a1-97c8-0867a2450d3c|60=20150406-12:17:27|8201=3|207=P|10=0|
8=FIX.4.2|9=0|35=D|49=KBWJ|56=FYMJ|34=2|50=6969|57=5669|52=20150406-12:17:27|11=5f96b374-fd9d-43c8-af9c-f55dd4efca54|41=e9c81e97-cf83-4aff-9e89-655313997a17|109=171866|1=KBWJ635304337|55=KORS|48=464288430|22=1|54=2|38=85700|40=1|15=USD|59=0|60=20150406-12:17:27|8201=1|207=P|10=0|
8=FIX.4.2|9=0|35=8|49=KBWJ|56=FYMJ|34=3|50=6969|57=5669|52=20150406-12:17:27|11=5f96b374-fd9d-43c8-af9c-f55dd4efca54|37=4d81ff21-e0db-40b3-a7cc-7d77cf9b503c|41=e9c81e97-cf83-4aff-9e89-655313997a17|109=171866|76=171866|17=cb975e86-3c0e-431d-841f-4e6ddd3807bc|20=0|39=2|1=KBWJ635304337|55=KORS|48=464288430|22=1|54=2|38=85700|40=1|59=0|32=85700|31=48.141000|30=O|29=1|14=85700|6=318.88|75=20150406-12:17:27|60=20150406-12:17:27|150=2|151=0|8201=1|207=P|10=0|
8=FIX.4.2|9=0|35=D|49=835867|56=PNGD|34=0|57=7301|52=20150406-12:17:27|11=c5a0ae33-3a32-4223-ba24-d5792d4ae5a6|41=ae31c8a3-ca2c-468d-b7fe-eb67f5e00551|1=277392690|55=DHR|48=464288430|22=1|54=2|38=65500|40=1|15=USD|59=0|60=20150406-12:17:27|8201=1|207=P|10=0|
8=FIX.4.2|9=0|35=D|49=PNGD|56=TRAC|34=1|50=7301|57=113|52=20150406-12:17:27|11=74c95d2f-2409-40cb-bbfe-0bebdae663de|109=835867|1=277392690|55=DHR|48=464288430|22=1|54=2|38=65500|40=1|15=USD|59=0|8011=c5a0ae33-3a32-4223-ba24-d5792d4ae5a6|60=20150406-12:17:27|8201=3|207=P|10=0|
8=FIX.4.2|9=0|35=D|49=PNGD|56=TRAC|34=2|50=7301|57=113|52=20150406-12:17:27|11=74c95d2f-2409-40cb-bbfe-0bebdae663de|41=848bf8bf-c5bf-4e19-b34e-52c99ba86d8f|109=835867|1=PNGD277392690|55=DHR|48=464288430|22=1|54=2|38=65500|40=1|15=USD|59=0|60=20150406-12:17:27|8201=1|207=P|10=0|
8=FIX.4.2|9=0|35=8|49=PNGD|56=TRAC|34=3|50=7301|57=113|52=20150406-12:17:27|11=74c95d2f-2409-40cb-bbfe-0bebdae663de|37=ad6256db-9c7e-44a6-8e03-2b4acab4f36a|41=848bf8bf-c5bf-4e19-b34e-52c99ba86d8f|109=835867|76=835867|17=0cd77a78-3e2c-45a7-90be-207cfaf9b875|20=0|39=2|1=PNGD277392690|55=DHR|48=464288430|22=1|54=2|38=65500|40=1|59=0|32=65500|31=48.141000|30=O|29=1|14=65500|6=222.10|75=20150406-12:17:27|60=20150406-12:17:27|150=2|151=0|8201=1|207=P|10=0|
8=FIX.4.2|9=0|35=D|49=620279|56=DTDE|34=0|57=7931|52=20150406-12:17:27|11=17259a2e-4f4f-4a05-a337-6b7b6d09fabf|41=16c1ba72-b02d-4598-87ba-eb3804f23ee6|1=290187422|55=DHR|48=464288430|22=1|54=2|38=29000|40=1|15=USD|59=0|60=20150406-12:17:27|8201=1|207=P|10=0|
8=FIX.4.2|9=0|35=D|49=DTDE|56=PNGD|34=1|50=7931|57=5519|52=20150406-12:17:27|11=e6ae2b5d-6b47-47c5-b841-26cbcfb48dc9|109=620279|1=290187422|55=DHR|48=464288430|22=1|54=2|38=29000|40=1|15=USD|59=0|8011=17259a2e-4f4f-4a05-a337-6b7b6d09fabf|60=20150406-12:17:27|8201=3|207=P|10=0|
8=FIX.4.2|9=0|35=D|49=DTDE|56=PNGD|34=2|50=7931|57=5519|52=20150406-12:17:27|11=e6ae2b5d-6b47-47c5-b841-26cbcfb48dc9|41=8928ec42-354c-4655-b401-24708f121bd3|109=620279|1=DTDE290187422|55=DHR|48=464288430|22=1|54=2|38=29000|40=1|15=USD|59=0|60=20150406-12:17:27|8201=1|207=P|10=0|
8=FIX.4.2|9=0|35=8|49=DTDE|56=PNGD|34=3|50=7931|57=5519|52=20150406-12:17:27|11=e6ae2b5d-6b47-47c5-b841-26cbcfb48dc9|37=5dca285c-6cf1-4adc-b96f-109f5148060f|41=8928ec42-354c-4655-b401-24708f121bd3|109=620279|76=620279|17=3d3f7c10-6bfc-4dbb-9dd9-933055ea25bf|20=0|39=2|1=DTDE290187422|55=DHR|48=464288430|22=1|54=2|38=29000|40=1|59=0|32=29000|31=48.141000|30=O|29=1|14=29000|6=222.81|75=20150406-12:17:27|60=20150406-12:17:27|150=2|151=0|8201=1|207=P|10=0|
8=FIX.4.2|9=0|35=D|49=538939|56=GPFI|34=0|57=7973|52=20150406-12:17:27|11=73b12507-b8d3-4f3d-b28e-0a793b8ea83b|41=3c1eeda3-6921-4573-9a9d-5feeea7942dc|1=590925629|55=GIS|48=464288430|22=1|54=1|38=56400|40=1|15=USD|59=0|60=20150406-12:17:27|8201=1|207=P|10=0|
8=FIX.4.2|9=0|35=D|49=GPFI|56=KBWJ|34=1|50=7973|57=7990|52=20150406-12:17:27|11=5cccccec-ad04-4c35-b24d-eda00b7bb64b|109=538939|1=590925629|55=GIS|48=464288430|22=1|54=1|38=56400|40=1|15=USD|59=0|8011=73b12507-b8d3-4f3d-b28e-0a793b8ea83b|60=20150406-12:17:27|8201=3|207=P|10=0|
8=FIX.4.2|9=0|35=D|49=GPFI|56=KBWJ|34=2|50=7973|57=7990|52=20150406-12:17:27|11=5cccccec-ad04-4c35-b24d-eda00b7bb64b|41=b3168350-a0f6-483c-af8d-313efed9aed1|109=538939|1=GPFI590925629|55=GIS|48=464288430|22=1|54=1|38=56400|40=1|15=USD|59=0|60=20150406-12:17:27|8201=1|207=P|10=0|
8=FIX.4.2|9=0|35=8|49=GPFI|56=KBWJ|34=3|50=7973|57=7990|52=20150406-12:17:27|11=5cccccec-ad04-4c35-b24d-eda00b7bb64b|37=6fc78429-f669-40e0-8652-8e5c391c0e9b|41=b3168350-a0f6-483c-af8d-313efed9aed1|109=538939|76=538939|17=2205eaac-190c-4e30-a711-dc061f744e8f|20=0|39=2|1=GPFI590925629|55=GIS|48=464288430|22=1|54=1|38=56400|40=1|59=0|32=56400|31=48.141000|30=O|29=1|14=56400|6=226.04|75=20150406-12:17:27|60=20150406-12:17:27|150=2|151=0|8201=1|207=P|10=0|
8=FIX.4.2|9=0|35=D|49=377500|56=ZGKR|34=0|57=9055|52=20150406-12:17:27|11=b4e985c2-c9bf-4b38-85b2-33d0484ad415|41=bd3aa804-6e33-44a8-8dd0-cbd839fcd683|1=849300461|55=AMT|48=464288430|22=1|54=1|38=33400|40=1|15=USD|59=0|60=20150406-12:17:27|8201=1|207=P|10=0|
8=FIX.4.2|9=0|35=D|49=ZGKR|56=OHPJ|34=1|50=9055|57=982|52=20150406-12:17:27|11=18d74009-fcd1-4bc8-9629-2a46bbb2cb77|109=377500|1=849300461|55=AMT|48=464288430|22=1|54=1|38=33400|40=1|15=USD|59=0|8011=b4e985c2-c9bf-4b38-85b2-33d0484ad415|60=20150406-12:17:27|8201=3|207=P|10=0|
8=FIX.4.2|9=0|35=D|49=ZGKR|56=OHPJ|34=2|50=9055|57=982|52=20150406-12:17:27|11=18d74009-fcd1-4bc8-9629-2a46bbb2cb77|41=b332f00d-3685-4a60-a346-3861662ed636|109=377500|1=ZGKR849300461|55=AMT|48=464288430|22=1|54=1|38=33400|40=1|15=USD|59=0|60=20150406-12:17:27|8201=1|207=P|10=0|
8=FIX.4.2|9=0|35=8|49=ZGKR|56=OHPJ|34=3|50=9055|57=982|52=20150406-12:17:27|11=18d74009-fcd1-4bc8-9629-2a46bbb2cb77|37=b136a529-7104-4399-a614-1db21eab3314|41=b332f00d-3685-4a60-a346-3861662ed636|109=377500|76=377500|17=7f503d26-e19d-436d-b4bc-64c38afb5cdf|20=0|39=2|1=ZGKR849300461|55=AMT|48=464288430|22=1|54=1|38=33400|40=1|59=0|32=33400|31=48.141000|30=O|29=1|14=33400|6=225.72|75=20150406-12:17:27|60=20150406-12:17:27|150=2|151=0|8201=1|207=P|10=0|
8=FIX.4.2|9=0|35=D|49=344626|56=KBWJ|34=0|57=5505|52=20150406-12:17:27|11=2dcbdaeb-321d-4cb0-91e9-0516e7db39c8|41=e86cc970-4495-4d75-9044-a4c0f8c950e1|1=602492772|55=CCI|48=464288430|22=1|54=1|38=20600|40=1|15=USD|59=0|60=20150406-12:17:27|8201=1|207=P|10=0|
8=FIX.4.2|9=0|35=D|49=KBWJ|56=ZLQN|34=1|50=5505|57=3256|52=20150406-12:17:27|11=4761be9e-48a2-4971-99f2-3b14aad83aea|109=344626|1=602492772|55=CCI|48=464288430|22=1|54=1|38=20600|40=1|15=USD|59=0|8011=2dcbdaeb-321d-4cb0-91e9-0516e7db39c8|60=20150406-12:17:27|8201=3|207=P|10=0|
8=FIX.4.2|9=0|35=D|49=KBWJ|56=ZLQN|34=2|50=5505|57=3256|52=20150406-12:17:27|11=4761be9e-48a2-4971-99f2-3b14aad83aea|41=cc6e9ef7-22c7-456f-9b68-09c576746d40|109=344626|1=KBWJ602492772|55=CCI|48=464288430|22=1|54=1|38=20600|40=1|15=USD|59=0|60=20150406-12:17:27|8201=1|207=P|10=0|
8=FIX.4.2|9=0|35=8|49=KBWJ|56=ZLQN|34=3|50=5505|57=3256|52=20150406-12:17:27|11=4761be9e-48a2-4971-99f2-3b14aad83aea|37=3ea21624-58c2-4f1b-9ed0-aaa654aca639|41=cc6e9ef7-22c7-456f-9b68-09c576746d40|109=344626|76=344626|17=6c60735d-a887-461a-8889-407167ad0a7f|20=0|39=2|1=KBWJ602492772|55=CCI|48=464288430|22=1|54=1|38=20600|40=1|59=0|32=20600|31=48.141000|30=O|29=1|14=20600|6=207.34|75=20150406-12:17:27|60=20150406-12:17:27|150=2|151=0|8201=1|207=P|10=0|
8=FIX.4.2|9=0|35=D|49=489849|56=TRAC|34=0|57=949|52=20150406-12:17:27|11=c8050cf3-c245-4068-9d46-e047925cf698|41=b1f13af5-4eeb-4e17-8dde-b1687525e118|1=452682389|55=IP|48=464288430|22=1|54=2|38=81200|40=1|15=USD|59=0|60=20150406-12:17:27|8201=1|207=P|10=0|
8=FIX.4.2|9=0|35=D|49=TRAC|56=VTNA|34=1|50=949|57=1990|52=20150406-12:17:27|11=3f6ee03c-8153-422a-9bfd-74fb2fa6880e|109=489849|1=452682389|55=IP|48=464288430|22=1|54=2|38=81200|40=1|15=USD|59=0|8011=c8050cf3-c245-4068-9d46-e047925cf698|60=20150406-12:17:27|8201=3|207=P|10=0|
8=FIX.4.2|9=0|35=D|49=TRAC|56=VTNA|34=2|50=949|57=1990|52=20150406-12:17:27|11=3f6ee03c-8153-422a-9bfd-74fb2fa6880e|41=19773c07-6df9-419a-8013-0c9783bc4256|109=489849|1=TRAC452682389|55=IP|48=464288430|22=1|54=2|38=81200|40=1|15=USD|59=0|60=20150406-12:17:27|8201=1|207=P|10=0|
8=FIX.4.2|9=0|35=8|49=TRAC|56=VTNA|34=3|50=949|57=1990|52=20150406-12:17:27|11=3f6ee03c-8153-422a-9bfd-74fb2fa6880e|37=199e7e30-f2c9-4ac7-8bb0-c1a185f68bdc|41=19773c07-6df9-419a-8013-0c9783bc4256|109=489849|76=489849|17=28092db1-333e-41e1-86ef-311f8ef09e61|20=0|39=2|1=TRAC452682389|55=IP|48=464288430|22=1|54=2|38=81200|40=1|59=0|32=81200|31=48.141000|30=O|29=1|14=81200|6=153.94|75=20150406-12:17:27|60=20150406-12:17:27|150=2|151=0|8201=1|207=P|10=0|
8=FIX.4.2|9=0|35=D|49=824778|56=DYTR|34=0|57=1235|52=20150406-12:17:27|11=6d083bba-f419-494d-8d9f-717a00dc26fa|41=ac6ede94-89ba-45c5-8d21-b83c84c9a6a2|1=743780152|55=PCAR|48=464288430|22=1|54=1|38=14500|40=1|15=USD|59=0|60=20150406-12:17:27|8201=1|207=P|10=0|
8=FIX.4.2|9=0|35=D|49=DYTR|56=EDWZ|34=1|50=1235|57=176|52=20150406-12:17:27|11=73a7d1d7-ae4d-46a8-ac3c-2fd5ae2f9dac|109=824778|1=743780152|55=PCAR|48=464288430|22=1|54=1|38=14500|40=1|15=USD|59=0|8011=6d083bba-f419-494d-8d9f-717a00dc26fa|60=20150406-12:17:27|8201=3|207=P|10=0|
8=FIX.4.2|9=0|35=D|49=DYTR|56=EDWZ|34=2|50=1235|57=176|52=20150406-12:17:27|11=73a7d1d7-ae4d-46a8-ac3c-2fd5ae2f9dac|41=36d1d7d7-eace-4548-9cd8-d5205b737920|109=824778|1=DYTR743780152|55=PCAR|48=464288430|22=1|54=1|38=14500|40=1|15=USD|59=0|60=20150406-12:17:27|8201=1|207=P|10=0|
8=FIX.4.2|9=0|35=8|49=DYTR|56=EDWZ|34=3|50=1235|57=176|52=20150406-12:17:27|11=73a7d1d7-ae4d-46a8-ac3c-2fd5ae2f9dac|37=042b35b9-f233-4e27-9d9a-bb3a2ff2131f|41=36d1d7d7-eace-4548-9cd8-d5205b737920|109=824778|76=824778|17=009abad2-2a57-414a-a359-01edf5af21ed|20=0|39=2|1=DYTR743780152|55=PCAR|48=464288430|22=1|54=1|38=14500|40=1|59=0|32=14500|31=48.141000|30=O|29=1|14=14500|6=293.08|75=20150406-12:17:27|60=20150406-12:17:27|150=2|151=0|8201=1|207=P|10=0|
8=FIX.4.2|9=0|35=D|49=465024|56=EXEP|34=0|57=878|52=20150406-12:17:27|11=e7ef67b2-9603-4231-9d98-383d05d29500|41=6ff749a5-08c0-42de-bb34-146e4afa084a|1=666787553|55=TMO|48=464288430|22=1|54=1|38=8200|40=1|15=USD|59=0|60=20150406-12:17:27|8201=1|207=P|10=0|
8=FIX.4.2|9=0|35=D|49=EXEP|56=LXDD|34=1|50=878|57=5119|52=20150406-12:17:27|11=b9fc615b-6463-4661-b95d-a72bc35bbb55|109=465024|1=666787553|55=TMO|48=464288430|22=1|54=1|38=8200|40=1|15=USD|59=0|8011=e7ef67b2-9603-4231-9d98-383d05d29500|60=20150406-12:17:27|8201=3|207=P|10=0|
8=FIX.4.2|9=0|35=D|49=EXEP|56=LXDD|34=2|50=878|57=5119|52=20150406-12:17:27|11=b9fc615b-6463-4661-b95d-a72bc35bbb55|41=88631733-3ee0-4e3a-9a72-b215efed4156|109=465024|1=EXEP666787553|55=TMO|48=464288430|22=1|54=1|38=8200|40=1|15=USD|59=0|60=20150406-12:17:27|8201=1|207=P|10=0|
8=FIX.4.2|9=0|35=8|49=EXEP|56=LXDD|34=3|50=878|57=5119|52=20150406-12:17:27|11=b9fc615b-6463-4661-b95d-a72bc35bbb55|37=23a9146e-6cc2-416c-bad0-05c8404b3626|41=88631733-3ee0-4e3a-9a72-b215efed4156|109=465024|76=465024|17=70dc5059-a097-4ee2-a4da-cdfc550f3143|20=0|39=2|1=EXEP666787553|55=TMO|48=464288430|22=1|54=1|38=8200|40=1|59=0|32=8200|31=48.141000|30=O|29=1|14=8200|6=240.21|75=20150406-12:17:27|60=20150406-12:17:27|150=2|151=0|8201=1|207=P|10=0|
8=FIX.4.2|9=0|35=D|49=446373|56=ENMM|34=0|57=2389|52=20150406-12:17:27|11=431bd649-c7a6-42ee-812b-f5b0f2f0131d|41=03a93b7e-3d5f-444c-a6c5-d8fd85653f59|1=163527608|55=BA|48=464288430|22=1|54=1|38=25600|40=1|15=USD|59=0|60=20150406-12:17:27|8201=1|207=P|10=0|
8=FIX.4.2|9=0|35=D|49=ENMM|56=IGFN|34=1|50=2389|57=6017|52=20150406-12:17:27|11=ebc0dbef-8010-4d68-91bc-c4b97dd996d0|109=446373|1=163527608|55=BA|48=464288430|22=1|54=1|38=25600|40=1|15=USD|59=0|8011=431bd649-c7a6-42ee-812b-f5b0f2f0131d|60=20150406-12:17:27|8201=3|207=P|10=0|
8=FIX.4.2|9=0|35=D|49=ENMM|56=IGFN|34=2|50=2389|57=6017|52=20150406-12:17:27|11=ebc0dbef-8010-4d68-91bc-c4b97dd996d0|41=7f7cb9ef-fcd0-4193-9aca-6423249da15e|109=446373|1=ENMM163527608|55=BA|48=464288430|22=1|54=1|38=25600|40=1|15=USD|59=0|60=20150406-12:17:27|8201=1|207=P|10=0|
8=FIX.4.2|9=0|35=8|49=ENMM|56=IGFN|34=3|50=2389|57=6017|52=20150406-12:17:27|11=ebc0dbef-8010-4d68-91bc-c4b97dd996d0|37=353f4be4-5b6d-4a9b-9a2e-f1fec0a3dec1|41=7f7cb9ef-fcd0-4193-9aca-6423249da15e|109=446373|76=446373|17=44d20c7a-f753-4b82-a9f2-01bc0a7a041b|20=0|39=2|1=ENMM163527608|55=BA|48=464288430|22=1|54=1|38=25600|40=1|59=0|32=25600|31=48.141000|30=O|29=1|14=25600|6=130.06|75=20150406-12:17:27|60=20150406-12:17:27|150=2|151=0|8201=1|207=P|10=0|
8=FIX.4.2|9=0|35=D|49=495228|56=DCLL|34=0|57=2320|52=20150406-12:17:27|11=b0772cec-e945-4e15-b192-299068e7ca89|41=d7123744-9690-4b21-937c-11c1a6865b04|1=926001178|55=ITW|48=464288430|22=1|54=2|38=71500|40=1|15=USD|59=0|60=20150406-12:17:27|8201=1|207=P|10=0|
8=FIX.4.2|9=0|35=D|49=DCLL|56=JJEF|34=1|50=2320|57=3708|52=20150406-12:17:27|11=bc3a7bfa-554d-4c88-ae92-f1e508e119e1|109=495228|1=926001178|55=ITW|48=464288430|22=1|54=2|38=71500|40=1|15=USD|59=0|8011=b0772cec-e945-4e15-b192-299068e7ca89|60=20150406-12:17:27|8201=3|207=P|10=0|
8=FIX.4.2|9=0|35=D|49=DCLL|56=JJEF|34=2|50=2320|57=3708|52=20150406-12:17:27|11=bc3a7bfa-554d-4c88-ae92-f1e508e119e1|41=cd6a2c1a-c019-4782-be18-417025cca316|109=495228|1=DCLL926001178|55=ITW|48=464288430|22=1|54=2|38=71500|40=1|15=USD|59=0|60=20150406-12:17:27|8201=1|207=P|10=0|
8=FIX.4.2|9=0|35=8|49=DCLL|56=JJEF|34=3|50=2320|57=3708|52=20150406-12:17:27|11=bc3a7bfa-554d-4c88-ae92-f1e508e119e1|37=d134aec9-f9d1-43ee-96fa-80bbee105908|41=cd6a2c1a-c019-4782-be18-417025cca316|109=495228|76=495228|17=270405f6-5aca-4fe0-ac2e-68e60cbd4178|20=0|39=2|1=DCLL926001178|55=ITW|48=464288430|22=1|54=2|38=71500|40=1|59=0|32=71500|31=48.141000|30=O|29=1|14=71500|6=243.36|75=20150406-12:17:27|60=20150406-12:17:27|150=2|151=0|8201=1|207=P|10=0|
8=FIX.4.2|9=0|35=D|49=689944|56=CJYS|34=0|57=8060|52=20150406-12:17:27|11=0960370f-558f-4cb9-861a-4d12890d835e|41=91a79dcd-bf18-4beb-8879-ecddefae0cb8|1=101789675|55=VIAB|48=464288430|22=1|54=1|38=22800|40=1|15=USD|59=0|60=20150406-12:17:27|8201=1|207=P|10=0|
8=FIX.4.2|9=0|35=D|49=CJYS|56=CLQF|34=1|50=8060|57=2599|52=20150406-12:17:27|11=044c3408-40db-47d1-a826-a539d2fe48f1|109=689944|1=101789675|55=VIAB|48=464288430|22=1|54=1|38=22800|40=1|15=USD|59=0|8011=0960370f-558f-4cb9-861a-4d12890d835e|60=20150406-12:17:27|8201=3|207=P|10=0|
8=FIX.4.2|9=0|35=D|49=CJYS|56=CLQF|34=2|50=8060|57=2599|52=20150406-12:17:27|11=044c3408-40db-47d1-a826-a539d2fe48f1|41=2db71e72-73db-4139-99b2-98acf1669781|109=689944|1=CJYS101789675|55=VIAB|48=464288430|22=1|54=1|38=22800|40=1|15=USD|59=0|60=20150406-12:17:27|8201=1|207=P|10=0|
8=FIX.4.2|9=0|35=8|49=CJYS|56=CLQF|34=3|50=8060|57=2599|52=20150406-12:17:27|11=044c3408-40db-47d1-a826-a539d2fe48f1|37=c130f5bc-25f2-42f1-aa9a-42ae491b0fdb|41=2db71e72-73db-4139-99b2-98acf1669781|109=689944|76=689944|17=2478c26e-3e60-4cd7-b7bc-ce1672cc47cf|20=0|39=2|1=CJYS101789675|55=VIAB|48=464288430|22=1|54=1|38=22800|40=1|59=0|32=22800|31=48.141000|30=O|29=1|14=22800|6=290.30|75=20150406-12:17:27|60=20150406-12:17:27|150=2|151=0|8201=1|207=P|10=0|
8=FIX.4.2|9=0|35=D|49=460693|56=GPFI|34=0|57=1416|52=20150406-12:17:27|11=d829cdcb-fd9a-42cb-ac8a-6e0735af9c8a|41=e42939dc-13eb-4b58-81d5-745440a402f2|1=988661590|55=ROST|48=464288430|22=1|54=1|38=52000|40=1|15=USD|59=0|60=20150406-12:17:27|8201=1|207=P|10=0|
8=FIX.4.2|9=0|35=D|49=GPFI|56=GFNV|34=1|50=1416|57=9740|52=20150406-12:17:27|11=af617b21-3d8b-41fa-8c71-c8c21f9b1e63|109=460693|1=988661590|55=ROST|48=464288430|22=1|54=1|38=52000|40=1|15=USD|59=0|8011=d829cdcb-fd9a-42cb-ac8a-6e0735af9c8a|60=20150406-12:17:27|8201=3|207=P|10=0|
8=FIX.4.2|9=0|35=D|49=GPFI|56=GFNV|34=2|50=1416|57=9740|52=20150406-12:17:27|11=af617b21-3d8b-41fa-8c71-c8c21f9b1e63|41=260df381-6849-4314-8dea-423aefa33232|109=460693|1=GPFI988661590|55=ROST|48=464288430|22=1|54=1|38=52000|40=1|15=USD|59=0|60=20150406-12:17:27|8201=1|207=P|10=0|
8=FIX.4.2|9=0|35=8|49=GPFI|56=GFNV|34=3|50=1416|57=9740|52=20150406-12:17:27|11=af617b21-3d8b-41fa-8c71-c8c21f9b1e63|37=9ca0e9bc-3b1f-485b-8fe6-b5c39402b146|41=260df381-6849-4314-8dea-423aefa33232|109=460693|76=460693|17=87fae78c-eab5-4c21-bf9a-a4bbb7a0fa10|20=0|39=2|1=GPFI988661590|55=ROST|48=464288430|22=1|54=1|38=52000|40=1|59=0|32=52000|31=48.141000|30=O|29=1|14=52000|6=328.75|75=20150406-12:17:27|60=20150406-12:17:27|150=2|151=0|8201=1|207=P|10=0|
8=FIX.4.2|9=0|35=D|49=970819|56=BNJM|34=0|57=633|52=20150406-12:17:27|11=5f408ea4-80f6-4b0c-a65a-dfa5b1f23c75|41=9304d3fb-90ff-489b-bfa9-7ec454d5cab9|1=421752171|55=RIG|48=464288430|22=1|54=1|38=46300|40=1|15=USD|59=0|60=20150406-12:17:27|8201=1|207=P|10=0|
8=FIX.4.2|9=0|35=D|49=BNJM|56=GZXU|34=1|50=633|57=6938|52=20150406-12:17:27|11=a2635a5e-e41b-458e-9cf0-4b6e0b29c77f|109=970819|1=421752171|55=RIG|48=464288430|22=1|54=1|38=46300|40=1|15=USD|59=0|8011=5f408ea4-80f6-4b0c-a65a-dfa5b1f23c75|60=20150406-12:17:27|8201=3|207=P|10=0|
8=FIX.4.2|9=0|35=D|49=BNJM|56=GZXU|34=2|50=633|57=6938|52=20150406-12:17:27|11=a2635a5e-e41b-458e-9cf0-4b6e0b29c77f|41=79b060b2-26e3-4063-ba23-2ef608001ab5|109=970819|1=BNJM421752171|55=RIG|48=464288430|22=1|54=1|38=46300|40=1|15=USD|59=0|60=20150406-12:17:27|8201=1|207=P|10=0|
8=FIX.4.2|9=0|35=8|49=BNJM|56=GZXU|34=3|50=633|57=6938|52=20150406-12:17:27|11=a2635a5e-e41b-458e-9cf0-4b6e0b29c77f|37=341ad16b-7969-47f5-bcf5-f28e87a4ba30|41=79b060b2-26e3-4063-ba23-2ef608001ab5|109=970819|76=970819|17=e9ecd589-db28-494f-af76-f7a7ab632bb1|20=0|39=2|1=BNJM421752171|55=RIG|48=464288430|22=1|54=1|38=46300|40=1|59=0|32=46300|31=48.141000|30=O|29=1|14=46300|6=225.11|75=20150406-12:17:27|60=20150406-12:17:27|150=2|151=0|8201=1|207=P|10=0|
8=FIX.4.2|9=0|35=D|49=883909|56=HXHG|34=0|57=2450|52=20150406-12:17:27|11=7a184c2d-5bb7-44c2-86ac-42f60a5b52e1|41=78e09ab2-dd14-4020-b3da-7e337909d721|1=051279620|55=MYL|48=464288430|22=1|54=2|38=18700|40=1|15=USD|59=0|60=20150406-12:17:27|8201=1|207=P|10=0|
8=FIX.4.2|9=0|35=D|49=HXHG|56=HPDP|34=1|50=2450|57=865|52=20150406-12:17:27|11=9bfb2eec-a4e9-4ec6-bb1c-ae2affdb7744|109=883909|1=051279620|55=MYL|48=464288430|22=1|54=2|38=18700|40=1|15=USD|59=0|8011=7a184c2d-5bb7-44c2-86ac-42f60a5b52e1|60=20150406-12:17:27|8201=3|207=P|10=0|
8=FIX.4.2|9=0|35=D|49=HXHG|56=HPDP|34=2|50=2450|57=865|52=20150406-12:17:27|11=9bfb2eec-a4e9-4ec6-bb1c-ae2affdb7744|41=bba1e9c8-a8b9-449c-a0c5-baaa69d1e021|109=883909|1=HXHG051279620|55=MYL|48=464288430|22=1|54=2|38=18700|40=1|15=USD|59=0|60=20150406-12:17:27|8201=1|207=P|10=0|
8=FIX.4.2|9=0|35=8|49=HXHG|56=HPDP|34=3|50=2450|57=865|52=20150406-12:17:27|11=9bfb2eec-a4e9-4ec6-bb1c-ae2affdb7744|37=188b8226-5c3d-46d0-bddd-69ce7f2d2099|41=bba1e9c8-a8b9-449c-a0c5-baaa69d1e021|109=883909|76=883909|17=57151a09-91e5-4b50-a90b-43ed7587e396|20=0|39=2|1=HXHG051279620|55=MYL|48=464288430|22=1|54=2|38=18700|40=1|59=0|32=18700|31=48.141000|30=O|29=1|14=18700|6=242.81|75=20150406-12:17:27|60=20150406-12:17:27|150=2|151=0|8201=1|207=P|10=0|
8=FIX.4.2|9=0|35=D|49=594720|56=FYMJ|34=0|57=1707|52=20150406-12:17:27|11=f2dc95f6-94c2-4710-84d2-c95185a8ae91|41=3c5014f3-2497-4c1f-bc28-b8a8eda895c7|1=859082492|55=MA|48=464288430|22=1|54=1|38=69800|40=1|15=USD|59=0|60=20150406-12:17:27|8201=1|207=P|10=0|
8=FIX.4.2|9=0|35=D|49=FYMJ|56=RVPS|34=1|50=1707|57=7695|52=20150406-12:17:27|11=35629ae8-f5c0-4ac2-aa11-d5f9e131cd0f|109=594720|1=859082492|55=MA|48=464288430|22=1|54=1|38=69800|40=1|15=USD|59=0|8011=f2dc95f6-94c2-4710-84d2-c95185a8ae91|60=20150406-12:17:27|8201=3|207=P|10=0|
8=FIX.4.2|9=0|35=D|49=FYMJ|56=RVPS|34=2|50=1707|57=7695|52=20150406-12:17:27|11=35629ae8-f5c0-4ac2-aa11-d5f9e131cd0f|41=f1c8794b-3c30-42f9-a9c0-05818b7abd0e|109=594720|1=FYMJ859082492|55=MA|48=464288430|22=1|54=1|38=69800|40=1|15=USD|59=0|60=20150406-12:17:27|8201=1|207=P|10=0|
8=FIX.4.2|9=0|35=8|49=FYMJ|56=RVPS|34=3|50=1707|57=7695|52=20150406-12:17:27|11=35629ae8-f5c0-4ac2-aa11-d5f9e131cd0f|37=4a5663e5-2265-49d0-8cfc-7bb670efb9bb|41=f1c8794b-3c30-42f9-a9c0-05818b7abd0e|109=594720|76=594720|17=a0d948da-ad48-4d05-b578-55d00909508d|20=0|39=2|1=FYMJ859082492|55=MA|48=464288430|22=1|54=1|38=69800|40=1|59=0|32=69800|31=48.141000|30=O|29=1|14=69800|6=142.05|75=20150406-12:17:27|60=20150406-12:17:27|150=2|151=0|8201=1|207=P|10=0|
8=FIX.4.2|9=0|35=D|49=711910|56=JWEK|34=0|57=5157|52=20150406-12:17:27|11=890aab9a-88ea-422f-b1ab-83d76c3159a7|41=e7cf77ec-7823-407e-8c7a-7bf18fe34bb2|1=849300461|55=HCBK|48=464288430|22=1|54=2|38=80300|40=1|15=USD|59=0|60=20150406-12:17:27|8201=1|207=P|10=0|
8=FIX.4.2|9=0|35=D|49=JWEK|56=BNJM|34=1|50=5157|57=5850|52=20150406-12:17:27|11=d3e3f1b3-da8a-4310-884e-9abc3cc0980b|109=711910|1=849300461|55=HCBK|48=464288430|22=1|54=2|38=80300|40=1|15=USD|59=0|8011=890aab9a-88ea-422f-b1ab-83d76c3159a7|60=20150406-12:17:27|8201=3|207=P|10=0|
8=FIX.4.2|9=0|35=D|49=JWEK|56=BNJM|34=2|50=5157|57=5850|52=20150406-12:17:27|11=d3e3f1b3-da8a-4310-884e-9abc3cc0980b|41=1aa523a8-2533-4c96-97ac-f717b358773b|109=711910|1=JWEK849300461|55=HCBK|48=464288430|22=1|54=2|38=80300|40=1|15=USD|59=0|60=20150406-12:17:27|8201=1|207=P|10=0|
8=FIX.4.2|9=0|35=8|49=JWEK|56=BNJM|34=3|50=5157|57=5850|52=20150406-12:17:27|11=d3e3f1b3-da8a-4310-884e-9abc3cc0980b|37=acd163dd-232d-4bc5-9dcb-9f484a0462c3|41=1aa523a8-2533-4c96-97ac-f717b358773b|109=711910|76=711910|17=b7969f8e-56d3-40c8-b2dc-75322b76ec1a|20=0|39=2|1=JWEK849300461|55=HCBK|48=464288430|22=1|54=2|38=80300|40=1|59=0|32=80300|31=48.141000|30=O|29=1|14=80300|6=280.99|75=20150406-12:17:27|60=20150406-12:17:27|150=2|151=0|8201=1|207=P|10=0|
8=FIX.4.2|9=0|35=D|49=829460|56=ENGA|34=0|57=6452|52=20150406-12:17:27|11=6a6d6f12-9bba-4319-9ae7-befd9075e8ff|41=c5ba4d55-002c-4941-8099-e08ca68ffbb1|1=988661590|55=AKAM|48=464288430|22=1|54=2|38=26500|40=1|15=USD|59=0|60=20150406-12:17:27|8201=1|207=P|10=0|
8=FIX.4.2|9=0|35=D|49=ENGA|56=OEZJ|34=1|50=6452|57=229|52=20150406-12:17:27|11=28431bbe-de19-4636-ae4f-3fb6acfe9bc1|109=829460|1=988661590|55=AKAM|48=464288430|22=1|54=2|38=26500|40=1|15=USD|59=0|8011=6a6d6f12-9bba-4319-9ae7-befd9075e8ff|60=20150406-12:17:27|8201=3|207=P|10=0|
8=FIX.4.2|9=0|35=D|49=ENGA|56=OEZJ|34=2|50=6452|57=229|52=20150406-12:17:27|11=28431bbe-de19-4636-ae4f-3fb6acfe9bc1|41=d69fcf03-a2b7-4c93-a76d-bb9ce8358e61|109=829460|1=ENGA988661590|55=AKAM|48=464288430|22=1|54=2|38=26500|40=1|15=USD|59=0|60=20150406-12:17:27|8201=1|207=P|10=0|
8=FIX.4.2|9=0|35=8|49=ENGA|56=OEZJ|34=3|50=6452|57=229|52=20150406-12:17:27|11=28431bbe-de19-4636-ae4f-3fb6acfe9bc1|37=a9898814-5a0b-49a9-942a-4ef66345102b|41=d69fcf03-a2b7-4c93-a76d-bb9ce8358e61|109=829460|76=829460|17=b76e72ab-3b3e-4134-bdc6-82d36b67d107|20=0|39=2|1=ENGA988661590|55=AKAM|48=464288430|22=1|54=2|38=26500|40=1|59=0|32=26500|31=48.141000|30=O|29=1|14=26500|6=281.16|75=20150406-12:17:27|60=20150406-12:17:27|150=2|151=0|8201=1|207=P|10=0|
8=FIX.4.2|9=0|35=D|49=532906|56=EDWZ|34=0|57=9685|52=20150406-12:17:27|11=370b9d0b-b574-49bb-8f37-944a7e59aa74|41=d75b4da0-91f4-44f4-9c20-e5a270ba39f7|1=920845885|55=BLK|48=464288430|22=1|54=1|38=0|40=1|15=USD|59=0|60=20150406-12:17:27|8201=1|207=P|10=0|
8=FIX.4.2|9=0|35=D|49=EDWZ|56=AEQD|34=1|50=9685|57=523|52=20150406-12:17:27|11=a60b4ce3-7565-4bb9-9f46-2751e9b2fb48|109=532906|1=920845885|55=BLK|48=464288430|22=1|54=1|38=0|40=1|15=USD|59=0|8011=370b9d0b-b574-49bb-8f37-944a7e59aa74|60=20150406-12:17:27|8201=3|207=P|10=0|
8=FIX.4.2|9=0|35=D|49=EDWZ|56=AEQD|34=2|50=9685|57=523|52=20150406-12:17:27|11=a60b4ce3-7565-4bb9-9f46-2751e9b2fb48|41=20f3ca2f-17ab-4c72-ba39-bb3386ab1196|109=532906|1=EDWZ920845885|55=BLK|48=464288430|22=1|54=1|38=0|40=1|15=USD|59=0|60=20150406-12:17:27|8201=1|207=P|10=0|
8=FIX.4.2|9=0|35=8|49=EDWZ|56=AEQD|34=3|50=9685|57=523|52=20150406-12:17:27|11=a60b4ce3-7565-4bb9-9f46-2751e9b2fb48|37=92f9a1be-0da7-4eb4-aaba-b325f2336723|41=20f3ca2f-17ab-4c72-ba39-bb3386ab1196|109=532906|76=532906|17=fbc4d4c0-0065-4db4-bb5b-8f3ad8c0426b|20=0|39=2|1=EDWZ920845885|55=BLK|48=464288430|22=1|54=1|38=0|40=1|59=0|32=0|31=48.141000|30=O|29=1|14=0|6=217.34|75=20150406-12:17:27|60=20150406-12:17:27|150=2|151=0|8201=1|207=P|10=0|
8=FIX.4.2|9=0|35=D|49=269302|56=DTVC|34=0|57=2366|52=20150406-12:17:27|11=4b86b613-72b2-48e9-a786-b71f5e02674f|41=0eefd8af-16d8-405a-99b4-a9e88b32a52f|1=924109057|55=CRM|48=464288430|22=1|54=1|38=11500|40=1|15=USD|59=0|60=20150406-12:17:27|8201=1|207=P|10=0|
8=FIX.4.2|9=0|35=D|49=DTVC|56=BWGU|34=1|50=2366|57=6071|52=20150406-12:17:27|11=abd33dcd-caa3-4f94-8f59-6fa989612a24|109=269302|1=924109057|55=CRM|48=464288430|22=1|54=1|38=11500|40=1|15=USD|59=0|8011=4b86b613-72b2-48e9-a786-b71f5e02674f|60=20150406-12:17:27|8201=3|207=P|10=0|
8=FIX.4.2|9=0|35=D|49=DTVC|56=BWGU|34=2|50=2366|57=6071|52=20150406-12:17:27|11=abd33dcd-caa3-4f94-8f59-6fa989612a24|41=85f0f600-8dd1-4614-b63f-460ee5f4e5d3|109=269302|1=DTVC924109057|55=CRM|48=464288430|22=1|54=1|38=11500|40=1|15=USD|59=0|60=20150406-12:17:27|8201=1|207=P|10=0|
8=FIX.4.2|9=0|35=8|49=DTVC|56=BWGU|34=3|50=2366|57=6071|52=20150406-12:17:27|11=abd33dcd-caa3-4f94-8f59-6fa989612a24|37=c25ea3ff-1116-4563-8c7a-1897012654fd|41=85f0f600-8dd1-4614-b63f-460ee5f4e5d3|109=269302|76=269302|17=edc05b6b-4320-4453-86e0-14dceb4bb864|20=0|39=2|1=DTVC924109057|55=CRM|48=464288430|22=1|54=1|38=11500|40=1|59=0|32=11500|31=48.141000|30=O|29=1|14=11500|6=226.35|75=20150406-12:17:27|60=20150406-12:17:27|150=2|151=0|8201=1|207=P|10=0|
