8=FIX.4.2|9=153|35=D|49=BLP|56=SCHB|34=1|50=30737|97=Y|52=20000809-20:20:50|11=90001008|1=10030003|21=2|55=TESTA|54=1|38=4000|40=2|59=0|44=30|47=I|60=20000809-18:20:32|10=061|
