|8=FIX.4.4|9=244|35=s|34=5|49=sender|52=20060319-09:08:20.881|56=target|22=8|40=2|44=9|48=ABC|55=ABC|60=20060319-09:08:19|548=184214|549=2|550=0|552=2|54=1|38=9|453=2|448=8|447=D|452=4|448=AAA35777|447=D|452=3|54=2|38=9|453=2|448=8|447=D|452=4|448=aaa|447=D|452=3|10=100|8=FIX.4.4|9=244|35=s|34=5|49=sender|52=20060319-09:08:20.881|56=target|22=8|40=2|44=9|48=ABC|55=ABC|60=20060319-09:08:19|548=184214|549=2|550=0|552=2|54=1|38=9|453=2|448=8|447=D|452=4|448=AAA35777|447=D|452=3|54=2|38=9|453=2|448=8|447=D|452=4|448=aaa|447=D|452=3|10=100|8=FIX.4.4|9=244|35=s|34=5|49=sender|52=20060319-09:08:20.881|56=target|22=8|40=2|44=9|48=ABC|55=ABC|60=20060319-09:08:19|548=184214|549=2|550=0|552=2|54=1|38=9|453=2|448=8|447=D|452=4|448=AAA35777|447=D|452=3|54=2|38=9|453=2|448=8|447=D|452=4|448=aaa|447=D|452=3|10=100|8=FIX.4.4|9=244|35=s|34=5|49=sender|52=20060319-09:08:20.881|56=target|22=8|40=2|44=9|48=ABC|55=ABC|60=20060319-09:08:19|548=184214|549=2|550=0|552=2|54=1|38=9|453=2|448=8|447=D|452=4|448=AAA35777|447=D|452=3|54=2|38=9|453=2|448=8|447=D|452=4|448=aaa|447=D|452=3|10=100
